{
  "contractName": "Productfi",
  "abi": [
    {
      "anonymous": false,
      "inputs": [
        {
          "indexed": false,
          "name": "response",
          "type": "bool"
        }
      ],
      "name": "reportStolenResponse",
      "type": "event",
      "signature": "0xd4624e0d0eb90b87c5744c67fd8efb2f875583ff6bf678eb83d43d9b4acb7aba"
    },
    {
      "anonymous": false,
      "inputs": [
        {
          "indexed": false,
          "name": "response",
          "type": "bool"
        }
      ],
      "name": "reportFoundResponse",
      "type": "event",
      "signature": "0x9f1e632718cf7c285071a10ed6a80c42bd22ed14c9c7770d98b17e93a74aa29e"
    },
    {
      "anonymous": false,
      "inputs": [
        {
          "indexed": false,
          "name": "response",
          "type": "bool"
        }
      ],
      "name": "changeOwnerResponse",
      "type": "event",
      "signature": "0x4f14b88f6b28751268988cecaaa3f4abcb5265167bb3f580bfb77ff2d2f2992c"
    },
    {
      "anonymous": false,
      "inputs": [
        {
          "indexed": false,
          "name": "response",
          "type": "bool"
        }
      ],
      "name": "initialOwnerResponse",
      "type": "event",
      "signature": "0x3612ccc4c47a2db44ef47e5507697b503bb955c933d7b6c5aab0aa45c3595f33"
    },
    {
      "constant": false,
      "inputs": [
        {
          "name": "_code",
          "type": "string"
        },
        {
          "name": "_brand",
          "type": "string"
        },
        {
          "name": "_model",
          "type": "string"
        },
        {
          "name": "_status",
          "type": "uint256"
        },
        {
          "name": "_description",
          "type": "string"
        },
        {
          "name": "_manufactuerName",
          "type": "string"
        },
        {
          "name": "_manufactuerLocation",
          "type": "string"
        },
        {
          "name": "_manufactuerTimestamp",
          "type": "string"
        }
      ],
      "name": "createCode",
      "outputs": [
        {
          "name": "",
          "type": "uint256"
        }
      ],
      "payable": true,
      "stateMutability": "payable",
      "type": "function",
      "signature": "0x10999689"
    },
    {
      "constant": true,
      "inputs": [
        {
          "name": "_code",
          "type": "string"
        }
      ],
      "name": "getNotOwnedCodeDetails",
      "outputs": [
        {
          "name": "",
          "type": "string"
        },
        {
          "name": "",
          "type": "string"
        },
        {
          "name": "",
          "type": "uint256"
        },
        {
          "name": "",
          "type": "string"
        },
        {
          "name": "",
          "type": "string"
        },
        {
          "name": "",
          "type": "string"
        },
        {
          "name": "",
          "type": "string"
        }
      ],
      "payable": false,
      "stateMutability": "view",
      "type": "function",
      "signature": "0x7ab9c57c"
    },
    {
      "constant": true,
      "inputs": [
        {
          "name": "_code",
          "type": "string"
        }
      ],
      "name": "getCurrentOwner",
      "outputs": [
        {
          "name": "",
          "type": "string"
        }
      ],
      "payable": false,
      "stateMutability": "view",
      "type": "function",
      "signature": "0xd55a772d"
    },
    {
      "constant": true,
      "inputs": [
        {
          "name": "_code",
          "type": "string"
        }
      ],
      "name": "getOwnedCodeDetails",
      "outputs": [
        {
          "name": "",
          "type": "string"
        },
        {
          "name": "",
          "type": "string"
        }
      ],
      "payable": false,
      "stateMutability": "view",
      "type": "function",
      "signature": "0x285e9e16"
    },
    {
      "constant": false,
      "inputs": [
        {
          "name": "_code",
          "type": "string"
        },
        {
          "name": "_hashedEmailRetailer",
          "type": "string"
        }
      ],
      "name": "addRetailerToCode",
      "outputs": [
        {
          "name": "",
          "type": "uint256"
        }
      ],
      "payable": true,
      "stateMutability": "payable",
      "type": "function",
      "signature": "0xb3e19d1a"
    },
    {
      "constant": false,
      "inputs": [
        {
          "name": "_hashedEmail",
          "type": "string"
        },
        {
          "name": "_name",
          "type": "string"
        },
        {
          "name": "_phone",
          "type": "string"
        }
      ],
      "name": "createCustomer",
      "outputs": [
        {
          "name": "",
          "type": "bool"
        }
      ],
      "payable": true,
      "stateMutability": "payable",
      "type": "function",
      "signature": "0x55b059e8"
    },
    {
      "constant": true,
      "inputs": [
        {
          "name": "_code",
          "type": "string"
        }
      ],
      "name": "getCustomerDetails",
      "outputs": [
        {
          "name": "",
          "type": "string"
        },
        {
          "name": "",
          "type": "string"
        }
      ],
      "payable": false,
      "stateMutability": "view",
      "type": "function",
      "signature": "0xc91e74e3"
    },
    {
      "constant": false,
      "inputs": [
        {
          "name": "_hashedEmail",
          "type": "string"
        },
        {
          "name": "_retailerName",
          "type": "string"
        },
        {
          "name": "_retailerLocation",
          "type": "string"
        }
      ],
      "name": "createRetailer",
      "outputs": [
        {
          "name": "",
          "type": "uint256"
        }
      ],
      "payable": true,
      "stateMutability": "payable",
      "type": "function",
      "signature": "0xb5bd438b"
    },
    {
      "constant": true,
      "inputs": [
        {
          "name": "_code",
          "type": "string"
        }
      ],
      "name": "getRetailerDetails",
      "outputs": [
        {
          "name": "",
          "type": "string"
        },
        {
          "name": "",
          "type": "string"
        }
      ],
      "payable": false,
      "stateMutability": "view",
      "type": "function",
      "signature": "0xea788dd1"
    },
    {
      "constant": false,
      "inputs": [
        {
          "name": "_code",
          "type": "string"
        },
        {
          "name": "_customer",
          "type": "string"
        }
      ],
      "name": "reportStolen",
      "outputs": [
        {
          "name": "",
          "type": "bool"
        }
      ],
      "payable": true,
      "stateMutability": "payable",
      "type": "function",
      "signature": "0x91904ff8"
    },
    {
      "constant": false,
      "inputs": [
        {
          "name": "_code",
          "type": "string"
        },
        {
          "name": "_customer",
          "type": "string"
        }
      ],
      "name": "reportFound",
      "outputs": [
        {
          "name": "",
          "type": "bool"
        }
      ],
      "payable": true,
      "stateMutability": "payable",
      "type": "function",
      "signature": "0x57e6eff6"
    },
    {
      "constant": false,
      "inputs": [
        {
          "name": "_code",
          "type": "string"
        },
        {
          "name": "_oldCustomer",
          "type": "string"
        },
        {
          "name": "_newCustomer",
          "type": "string"
        }
      ],
      "name": "changeOwner",
      "outputs": [
        {
          "name": "",
          "type": "bool"
        }
      ],
      "payable": true,
      "stateMutability": "payable",
      "type": "function",
      "signature": "0xceff2efc"
    },
    {
      "constant": false,
      "inputs": [
        {
          "name": "_code",
          "type": "string"
        },
        {
          "name": "_retailer",
          "type": "string"
        },
        {
          "name": "_customer",
          "type": "string"
        }
      ],
      "name": "initialOwner",
      "outputs": [
        {
          "name": "",
          "type": "bool"
        }
      ],
      "payable": true,
      "stateMutability": "payable",
      "type": "function",
      "signature": "0xc5e69717"
    },
    {
      "constant": true,
      "inputs": [
        {
          "name": "_customer",
          "type": "string"
        }
      ],
      "name": "getCodes",
      "outputs": [
        {
          "name": "",
          "type": "string[]"
        }
      ],
      "payable": false,
      "stateMutability": "view",
      "type": "function",
      "signature": "0xff901040"
    }
  ],
  "bytecode": "0x608060405234801561001057600080fd5b50613e1e806100206000396000f3fe6080604052600436106100cf5763ffffffff7c01000000000000000000000000000000000000000000000000000000006000350416631099968981146100d4578063285e9e16146100fd57806355b059e81461012b57806357e6eff61461014b5780637ab9c57c1461015e57806391904ff814610191578063b3e19d1a146101a4578063b5bd438b146101b7578063c5e69717146101ca578063c91e74e3146101dd578063ceff2efc146101fd578063d55a772d14610210578063ea788dd11461023d578063ff9010401461025d575b600080fd5b6100e76100e2366004613a43565b61028a565b6040516100f49190613d32565b60405180910390f35b34801561010957600080fd5b5061011d610118366004613909565b61041a565b6040516100f4929190613c7e565b61013e6101393660046139af565b6106ee565b6040516100f49190613c5f565b61013e610159366004613946565b610852565b34801561016a57600080fd5b5061017e610179366004613909565b610b33565b6040516100f49796959493929190613ca3565b61013e61019f366004613946565b61117e565b6100e76101b2366004613946565b611361565b6100e76101c53660046139af565b6113e5565b61013e6101d83660046139af565b611499565b3480156101e957600080fd5b5061011d6101f8366004613909565b611a53565b61013e61020b3660046139af565b611c06565b34801561021c57600080fd5b5061023061022b366004613909565b612d60565b6040516100f49190613c6d565b34801561024957600080fd5b5061011d610258366004613909565b613228565b34801561026957600080fd5b5061027d610278366004613909565b61334d565b6040516100f49190613c4e565b600061029461361e565b60208082018a905260408083018a9052888352606083018890526080830187905260a0830186905260c08301859052518b5183926000928e9290918291908401908083835b602083106102f85780518252601f1990920191602091820191016102d9565b51815160209384036101000a60001901801990921691161790529201948552506040519384900381019093208451815584840151805191946103429450600186019350019061366b565b506040820151805161035e91600284019160209091019061366b565b506060820151805161037a91600384019160209091019061366b565b506080820151805161039691600484019160209091019061366b565b5060a082015180516103b291600584019160209091019061366b565b5060c082015180516103ce91600684019160209091019061366b565b5060e082015180516103ea91600784019160209091019061366b565b5061010082015180516104079160088401916020909101906136e9565b5060019c9b505050505050505050505050565b606080606060026000856040518082805190602001908083835b602083106104535780518252601f199092019160209182019101610434565b6001836020036101000a038019825116818451168082178552505050505050905001915050908152602001604051809103902060070160405180828054600181600116156101000203166002900480156104e45780601f106104c25761010080835404028352918201916104e4565b820191906000526020600020905b8154815290600101906020018083116104d0575b505092835250506040805160209281900383018120805460026001821615610100026000190190911604601f810185900485028301850190935282825290929091908301828280156105775780601f1061054c57610100808354040283529160200191610577565b820191906000526020600020905b81548152906001019060200180831161055a57829003601f168201915b50505050509050606060026000866040518082805190602001908083835b602083106105b45780518252601f199092019160209182019101610595565b6001836020036101000a038019825116818451168082178552505050505050905001915050908152602001604051809103902060070160405180828054600181600116156101000203166002900480156106455780601f10610623576101008083540402835291820191610645565b820191906000526020600020905b815481529060010190602001808311610631575b5050928352505060408051602092819003830181206001908101805460029281161561010002600019011691909104601f810185900485028301850190935282825290929091908301828280156106dd5780601f106106b2576101008083540402835291602001916106dd565b820191906000526020600020905b8154815290600101906020018083116106c057829003601f168201915b509597509295505050505050915091565b60006001846040518082805190602001908083835b602083106107225780518252601f199092019160209182019101610703565b51815160209384036101000a600019018019909216911617905292019485525060405193849003019092206003015460ff1615915061076590505750600061084b565b61076d613742565b83815260208082018490526001606083018190526040518751849389929182918401908083835b602083106107b35780518252601f199092019160209182019101610794565b51815160209384036101000a60001901801990921691161790529201948552506040519384900381019093208451805191946107f49450859350019061366b565b50602082810151805161080d926001850192019061366b565b50604082015180516108299160028401916020909101906136e9565b50606091909101516003909101805460ff191691151591909117905550600190505b9392505050565b6000806001836040518082805190602001908083835b602083106108875780518252601f199092019160209182019101610868565b51815160209384036101000a600019018019909216911617905292019485525060405193849003019092206003015460ff16159150610aef9050575060005b6001836040518082805190602001908083835b602083106108f85780518252601f1990920191602091820191016108d9565b51815160209384036101000a60001901801990921691161790529201948552506040519384900301909220600201548310159150610aef905057610a3e6001846040518082805190602001908083835b602083106109675780518252601f199092019160209182019101610948565b51815160209384036101000a60001901801990921691161790529201948552506040519384900301909220600201805490925084915081106109a557fe5b600091825260209182902001805460408051601f6002600019610100600187161502019094169390930492830185900485028101850190915281815292830182828015610a335780601f10610a0857610100808354040283529160200191610a33565b820191906000526020600020905b815481529060010190602001808311610a1657829003601f168201915b505050505085613481565b15610ae75760016000856040518082805190602001908083835b60208310610a775780518252601f199092019160209182019101610a58565b51815160209384036101000a60001901801990921691161790529201948552506040519384900301832093909355507f9f1e632718cf7c285071a10ed6a80c42bd22ed14c9c7770d98b17e93a74aa29e9150610ad590600190613c5f565b60405180910390a16001915050610b2d565b6001016108c6565b7f9f1e632718cf7c285071a10ed6a80c42bd22ed14c9c7770d98b17e93a74aa29e6000604051610b1f9190613c5f565b60405180910390a160009150505b92915050565b606080600060608060608060606000896040518082805190602001908083835b60208310610b725780518252601f199092019160209182019101610b53565b518151600019602094850361010090810a8201928316921993909316919091179092529490920196875260408051978890038201882060019081018054601f60029382161590980290950190941604948501829004820288018201905283875290945091925050830182828015610c2a5780601f10610bff57610100808354040283529160200191610c2a565b820191906000526020600020905b815481529060010190602001808311610c0d57829003601f168201915b50505050509050606060008a6040518082805190602001908083835b60208310610c655780518252601f199092019160209182019101610c46565b518151600019602094850361010090810a8201928316921993909316919091179092529490920196875260408051978890038201882060029081018054601f600182161590980290950190941604948501829004820288018201905283875290945091925050830182828015610d1c5780601f10610cf157610100808354040283529160200191610d1c565b820191906000526020600020905b815481529060010190602001808311610cff57829003601f168201915b505050505090506000808b6040518082805190602001908083835b60208310610d565780518252601f199092019160209182019101610d37565b6001836020036101000a0380198251168184511680821785525050505050509050019150509081526020016040518091039020600001549050606060008c6040518082805190602001908083835b60208310610dc35780518252601f199092019160209182019101610da4565b518151600019602094850361010090810a820192831692199390931691909117909252949092019687526040805197889003820188206003018054601f6002600183161590980290950116959095049283018290048202880182019052818752929450925050830182828015610e7a5780601f10610e4f57610100808354040283529160200191610e7a565b820191906000526020600020905b815481529060010190602001808311610e5d57829003601f168201915b50505050509050606060008d6040518082805190602001908083835b60208310610eb55780518252601f199092019160209182019101610e96565b518151600019602094850361010090810a820192831692199390931691909117909252949092019687526040805197889003820188206004018054601f6002600183161590980290950116959095049283018290048202880182019052818752929450925050830182828015610f6c5780601f10610f4157610100808354040283529160200191610f6c565b820191906000526020600020905b815481529060010190602001808311610f4f57829003601f168201915b50505050509050606060008e6040518082805190602001908083835b60208310610fa75780518252601f199092019160209182019101610f88565b518151600019602094850361010090810a820192831692199390931691909117909252949092019687526040805197889003820188206005018054601f600260018316159098029095011695909504928301829004820288018201905281875292945092505083018282801561105e5780601f106110335761010080835404028352916020019161105e565b820191906000526020600020905b81548152906001019060200180831161104157829003601f168201915b50505050509050606060008f6040518082805190602001908083835b602083106110995780518252601f19909201916020918201910161107a565b518151600019602094850361010090810a820192831692199390931691909117909252949092019687526040805197889003820188206006018054601f60026001831615909802909501169590950492830182900482028801820190528187529294509250508301828280156111505780601f1061112557610100808354040283529160200191611150565b820191906000526020600020905b81548152906001019060200180831161113357829003601f168201915b50505050509050868686868686869d509d509d509d509d509d509d5050505050505050919395979092949650565b6000806001836040518082805190602001908083835b602083106111b35780518252601f199092019160209182019101611194565b51815160209384036101000a600019018019909216911617905292019485525060405193849003019092206003015460ff161591506113319050575060005b6001836040518082805190602001908083835b602083106112245780518252601f199092019160209182019101611205565b51815160209384036101000a60001901801990921691161790529201948552506040519384900301909220600201548310159150611331905057611292600184604051808280519060200190808383602083106109675780518252601f199092019160209182019101610948565b156113295760026000856040518082805190602001908083835b602083106112cb5780518252601f1990920191602091820191016112ac565b51815160209384036101000a60001901801990921691161790529201948552506040519384900301832093909355507fd4624e0d0eb90b87c5744c67fd8efb2f875583ff6bf678eb83d43d9b4acb7aba9150610ad590600190613c5f565b6001016111f2565b7fd4624e0d0eb90b87c5744c67fd8efb2f875583ff6bf678eb83d43d9b4acb7aba6000604051610b1f9190613c5f565b6000816000846040518082805190602001908083835b602083106113965780518252601f199092019160209182019101611377565b51815160209384036101000a600019018019909216911617905292019485525060405193849003810190932084516113db95600790920194919091019250905061366b565b5060019392505050565b60006113ef61376d565b838152602080820184905260405186518392600292899290918291908401908083835b602083106114315780518252601f199092019160209182019101611412565b51815160209384036101000a60001901801990921691161790529201948552506040519384900381019093208451805191946114729450859350019061366b565b50602082810151805161148b926001850192019061366b565b506001979650505050505050565b60006115926000856040518082805190602001908083835b602083106114d05780518252601f1990920191602091820191016114b1565b518151600019602094850361010090810a820192831692199390931691909117909252949092019687526040805197889003820188206007018054601f60026001831615909802909501169590950492830182900482028801820190528187529294509250508301828280156115875780601f1061155c57610100808354040283529160200191611587565b820191906000526020600020905b81548152906001019060200180831161156a57829003601f168201915b505050505084613481565b15611a11576001826040518082805190602001908083835b602083106115c95780518252601f1990920191602091820191016115aa565b51815160209384036101000a600019018019909216911617905292019485525060405193849003019092206003015460ff16159150611a119050576000846040518082805190602001908083835b602083106116365780518252601f199092019160209182019101611617565b51815160209384036101000a60001901801990921691161790529201948552506040519384900381019093206008018054600181018083556000928352918590208751929561168c95509101925086019061366b565b505060016000856040518082805190602001908083835b602083106116c25780518252601f1990920191602091820191016116a3565b51815160209384036101000a600019018019909216911617905292019485525060405193849003810184209490945550508351600092600192869290918291908401908083835b602083106117285780518252601f199092019160209182019101611709565b51815160209384036101000a600019018019909216911617905292019485525060405193849003019092206002015492505050801515611894576001836040518082805190602001908083835b602083106117945780518252601f199092019160209182019101611775565b51815160209384036101000a60001901801990921691161790529201948552506040519384900381019093206002018054600181018083556000928352918590208a5192956117ea95509101925089019061366b565b50506001836040518082805190602001908083835b6020831061181e5780518252601f1990920191602091820191016117ff565b51815160209384036101000a6000190180199092169116179052920194855250604080519485900382018520600201805460018101808355600092835291849020878401909352600480885260e060020a636861636b0297909401968752909561188d9550910192509061366b565b50506119cf565b846001846040518082805190602001908083835b602083106118c75780518252601f1990920191602091820191016118a8565b6001836020036101000a03801982511681845116808217855250505050505090500191505090815260200160405180910390206002016001830381548110151561190d57fe5b90600052602060002001908051906020019061192a92919061366b565b506001836040518082805190602001908083835b6020831061195d5780518252601f19909201916020918201910161193e565b51815160209384036101000a6000190180199092169116179052920194855250604080519485900382018520600201805460018101808355600092835291849020878401909352600480885260e060020a636861636b029790940196875290956119cc9550910192509061366b565b50505b7f3612ccc4c47a2db44ef47e5507697b503bb955c933d7b6c5aab0aa45c3595f3360016040516119ff9190613c5f565b60405180910390a1600191505061084b565b7f3612ccc4c47a2db44ef47e5507697b503bb955c933d7b6c5aab0aa45c3595f336000604051611a419190613c5f565b60405180910390a15060009392505050565b60608060606001846040518082805190602001908083835b60208310611a8a5780518252601f199092019160209182019101611a6b565b518151600019602094850361010090810a820192831692199390931691909117909252949092019687526040805197889003820188208054601f6002600183161590980290950116959095049283018290048202880182019052818752929450925050830182828015611b3e5780601f10611b1357610100808354040283529160200191611b3e565b820191906000526020600020905b815481529060010190602001808311611b2157829003601f168201915b5050505050905060606001856040518082805190602001908083835b60208310611b795780518252601f199092019160209182019101611b5a565b518151600019602094850361010090810a8201928316921993909316919091179092529490920196875260408051978890038201882060019081018054601f600293821615909802909501909416049485018290048202880182019052838752909450919250508301828280156106dd5780601f106106b2576101008083540402835291602001916106dd565b60008080611c1261361e565b6000876040518082805190602001908083835b60208310611c445780518252601f199092019160209182019101611c25565b518151602093840361010090810a6000199081018019909416939092169290921790925292909401968752604080519788900382018820610120890182528054895260018082018054845160029382161590970290980190971604601f81018490048402850184019092528184529650878201955091939250830182828015611d0e5780601f10611ce357610100808354040283529160200191611d0e565b820191906000526020600020905b815481529060010190602001808311611cf157829003601f168201915b5050509183525050600282810180546040805160206001841615610100026000190190931694909404601f81018390048302850183019091528084529381019390830182828015611da05780601f10611d7557610100808354040283529160200191611da0565b820191906000526020600020905b815481529060010190602001808311611d8357829003601f168201915b505050918352505060038201805460408051602060026001851615610100026000190190941693909304601f8101849004840282018401909252818152938201939291830182828015611e345780601f10611e0957610100808354040283529160200191611e34565b820191906000526020600020905b815481529060010190602001808311611e1757829003601f168201915b505050918352505060048201805460408051602060026001851615610100026000190190941693909304601f8101849004840282018401909252818152938201939291830182828015611ec85780601f10611e9d57610100808354040283529160200191611ec8565b820191906000526020600020905b815481529060010190602001808311611eab57829003601f168201915b505050918352505060058201805460408051602060026001851615610100026000190190941693909304601f8101849004840282018401909252818152938201939291830182828015611f5c5780601f10611f3157610100808354040283529160200191611f5c565b820191906000526020600020905b815481529060010190602001808311611f3f57829003601f168201915b505050918352505060068201805460408051602060026001851615610100026000190190941693909304601f8101849004840282018401909252818152938201939291830182828015611ff05780601f10611fc557610100808354040283529160200191611ff0565b820191906000526020600020905b815481529060010190602001808311611fd357829003601f168201915b505050918352505060078201805460408051602060026001851615610100026000190190941693909304601f81018490048402820184019092528181529382019392918301828280156120845780601f1061205957610100808354040283529160200191612084565b820191906000526020600020905b81548152906001019060200180831161206757829003601f168201915b5050505050815260200160088201805480602002602001604051908101604052809291908181526020016000905b8282101561215d5760008481526020908190208301805460408051601f60026000196101006001871615020190941693909304928301859004850281018501909152818152928301828280156121495780601f1061211e57610100808354040283529160200191612149565b820191906000526020600020905b81548152906001019060200180831161212c57829003601f168201915b5050505050815260200190600101906120b2565b5050509152505061010081015151909150612176613742565b6001886040518082805190602001908083835b602083106121a85780518252601f199092019160209182019101612189565b518151600019602094850361010090810a82019283169219939093169190911790925294909201968752604080519788900382018820805460a0601f600260018416159099029096019091169690960493840183900490920288018501905260808701828152909550869450928592508401828280156122695780601f1061223e57610100808354040283529160200191612269565b820191906000526020600020905b81548152906001019060200180831161224c57829003601f168201915b50505050508152602001600182018054600181600116156101000203166002900480601f01602080910402602001604051908101604052809291908181526020018280546001816001161561010002031660029004801561230b5780601f106122e05761010080835404028352916020019161230b565b820191906000526020600020905b8154815290600101906020018083116122ee57829003601f168201915b5050505050815260200160028201805480602002602001604051908101604052809291908181526020016000905b828210156123e45760008481526020908190208301805460408051601f60026000196101006001871615020190941693909304928301859004850281018501909152818152928301828280156123d05780601f106123a5576101008083540402835291602001916123d0565b820191906000526020600020905b8154815290600101906020018083116123b357829003601f168201915b505050505081526020019060010190612339565b505050908252506003919091015460ff1615156020918201526040518a519293506000926001928c929182918401908083835b602083106124365780518252601f199092019160209182019101612417565b51815160209384036101000a6000190180199092169116179052920194855250604051938490030190922060020154925061247391506137429050565b6001896040518082805190602001908083835b602083106124a55780518252601f199092019160209182019101612486565b518151600019602094850361010090810a82019283169219939093169190911790925294909201968752604080519788900382018820805460a0601f600260018416159099029096019091169690960493840183900490920288018501905260808701828152909550869450928592508401828280156125665780601f1061253b57610100808354040283529160200191612566565b820191906000526020600020905b81548152906001019060200180831161254957829003601f168201915b50505050508152602001600182018054600181600116156101000203166002900480601f0160208091040260200160405190810160405280929190818152602001828054600181600116156101000203166002900480156126085780601f106125dd57610100808354040283529160200191612608565b820191906000526020600020905b8154815290600101906020018083116125eb57829003601f168201915b5050505050815260200160028201805480602002602001604051908101604052809291908181526020016000905b828210156126e15760008481526020908190208301805460408051601f60026000196101006001871615020190941693909304928301859004850281018501909152818152928301828280156126cd5780601f106126a2576101008083540402835291602001916126cd565b820191906000526020600020905b8154815290600101906020018083116126b057829003601f168201915b505050505081526020019060010190612636565b505050908252506003919091015460ff1615156020909101526060840151909150801561270f575080606001515b15612d1757600096505b8187101561275f5761274683604001518881518110151561273657fe5b906020019060200201518c613481565b15612754576001955061275f565b600190960195612719565b60018615151415612d1757600096505b838710156128415761279d8561010001518881518110151561278d57fe5b906020019060200201518b613481565b15612836578860008c6040518082805190602001908083835b602083106127d55780518252601f1990920191602091820191016127b6565b51815160209384036101000a6000190180199092169116179052920194855250604051938490030190922060080180549092508a9150811061281357fe5b90600052602060002001908051906020019061283092919061366b565b50612841565b60019096019561276f565b600096505b81871015612d175761295a60018b6040518082805190602001908083835b602083106128835780518252601f199092019160209182019101612864565b51815160209384036101000a6000190180199092169116179052920194855250604051938490030190922060020180549092508a915081106128c157fe5b600091825260209182902001805460408051601f600260001961010060018716150201909416939093049283018590048502810185019091528181529283018282801561294f5780601f106129245761010080835404028352916020019161294f565b820191906000526020600020905b81548152906001019060200180831161293257829003601f168201915b50505050508c613481565b15612d0c576129cc8760018c6040518082805190602001908083835b602083106129955780518252601f199092019160209182019101612976565b51815160209384036101000a6000190180199092169116179052920194855250604051938490030190922060020191506135689050565b50600060018a6040518082805190602001908083835b60208310612a015780518252601f1990920191602091820191016129e2565b51815160209384036101000a600019018019909216911617905292019485525060405193849003019092206002015492505050801515612b885760018a6040518082805190602001908083835b60208310612a6d5780518252601f199092019160209182019101612a4e565b6001836020036101000a03801982511681845116808217855250505050505090500191505090815260200160405180910390206002018c9080600181540180825580915050906001820390600052602060002001600090919290919091509080519060200190612ade92919061366b565b505060018a6040518082805190602001908083835b60208310612b125780518252601f199092019160209182019101612af3565b51815160209384036101000a6000190180199092169116179052920194855250604080519485900382018520600201805460018101808355600092835291849020878401909352600480885260e060020a636861636b02979094019687529095612b819550910192509061366b565b5050612cc3565b8b60018b6040518082805190602001908083835b60208310612bbb5780518252601f199092019160209182019101612b9c565b6001836020036101000a038019825116818451168082178552505050505050905001915050908152602001604051809103902060020160018303815481101515612c0157fe5b906000526020600020019080519060200190612c1e92919061366b565b5060018a6040518082805190602001908083835b60208310612c515780518252601f199092019160209182019101612c32565b51815160209384036101000a6000190180199092169116179052920194855250604080519485900382018520600201805460018101808355600092835291849020878401909352600480885260e060020a636861636b02979094019687529095612cc09550910192509061366b565b50505b7f4f14b88f6b28751268988cecaaa3f4abcb5265167bb3f580bfb77ff2d2f2992c6001604051612cf39190613c5f565b60405180910390a160019850505050505050505061084b565b600190960195612846565b7f4f14b88f6b28751268988cecaaa3f4abcb5265167bb3f580bfb77ff2d2f2992c6000604051612d479190613c5f565b60405180910390a15060009a9950505050505050505050565b6060600080836040518082805190602001908083835b60208310612d955780518252601f199092019160209182019101612d76565b51815160209384036101000a6000190180199092169116179052920194855250604051938490030190922054925060609150508115156130af576000846040518082805190602001908083835b60208310612e015780518252601f199092019160209182019101612de2565b6001836020036101000a03801982511681845116808217855250505050505090500191505090815260200160405180910390206007018054600181600116156101000203166002900490506000141515612fb95760026000856040518082805190602001908083835b60208310612e895780518252601f199092019160209182019101612e6a565b6001836020036101000a03801982511681845116808217855250505050505090500191505090815260200160405180910390206007016040518082805460018160011615610100020316600290048015612f1a5780601f10612ef8576101008083540402835291820191612f1a565b820191906000526020600020905b815481529060010190602001808311612f06575b505092835250506040805160209281900383018120805460026001821615610100026000190190911604601f81018590048502830185019093528282529092909190830182828015612fad5780601f10612f8257610100808354040283529160200191612fad565b820191906000526020600020905b815481529060010190602001808311612f9057829003601f168201915b505050505090506130aa565b6000846040518082805190602001908083835b60208310612feb5780518252601f199092019160209182019101612fcc565b518151600019602094850361010090810a820192831692199390931691909117909252949092019687526040805197889003820188206004018054601f60026001831615909802909501169590950492830182900482028801820190528187529294509250508301828280156130a25780601f10613077576101008083540402835291602001916130a2565b820191906000526020600020905b81548152906001019060200180831161308557829003601f168201915b505050505090505b61084b565b60016000856040518082805190602001908083835b602083106130e35780518252601f1990920191602091820191016130c4565b51815160209384036101000a60001901801990921691161790529201948552506040519384900301909220600801805490925060009150811061312257fe5b9060005260206000200160405180828054600181600116156101000203166002900480156131875780601f10613165576101008083540402835291820191613187565b820191906000526020600020905b815481529060010190602001808311613173575b505092835250506040805160209281900383018120805460026001821615610100026000190190911604601f8101859004850283018501909352828252909290919083018282801561321a5780601f106131ef5761010080835404028352916020019161321a565b820191906000526020600020905b8154815290600101906020018083116131fd57829003601f168201915b505050505090509392505050565b60608060606002846040518082805190602001908083835b6020831061325f5780518252601f199092019160209182019101613240565b518151600019602094850361010090810a820192831692199390931691909117909252949092019687526040805197889003820188208054601f60026001831615909802909501169590950492830182900482028801820190528187529294509250508301828280156133135780601f106132e857610100808354040283529160200191613313565b820191906000526020600020905b8154815290600101906020018083116132f657829003601f168201915b50505050509050606060028560405180828051906020019080838360208310611b795780518252601f199092019160209182019101611b5a565b6060806001836040518082805190602001908083835b602083106133825780518252601f199092019160209182019101613363565b51815160209384036101000a60001901801990921691161790529201948552506040805194859003820185206002018054808402870184019092528186529350915060009084015b828210156134755760008481526020908190208301805460408051601f60026000196101006001871615020190941693909304928301859004850281018501909152818152928301828280156134615780601f1061343657610100808354040283529160200191613461565b820191906000526020600020905b81548152906001019060200180831161344457829003601f168201915b5050505050815260200190600101906133ca565b50929695505050505050565b6000816040516020018082805190602001908083835b602083106134b65780518252601f199092019160209182019101613497565b6001836020036101000a03801982511681845116808217855250505050505090500191505060405160208183030381529060405280519060200120836040516020018082805190602001908083835b602083106135245780518252601f199092019160209182019101613505565b6001836020036101000a0380198251168184511680821785525050505050509050019150506040516020818303038152906040528051906020012014905092915050565b8054600090831061357b57506000610b2d565b825b8254600019018110156135e557828160010181548110151561359b57fe5b9060005260206000200183828154811015156135b357fe5b9060005260206000200190805460018160011615610100020316600290046135dc929190613784565b5060010161357d565b508154829060001981019081106135f857fe5b90600052602060002001600061360e91906137f9565b81546113db836000198301613840565b610120604051908101604052806000815260200160608152602001606081526020016060815260200160608152602001606081526020016060815260200160608152602001606081525090565b828054600181600116156101000203166002900490600052602060002090601f016020900481019282601f106136ac57805160ff19168380011785556136d9565b828001600101855582156136d9579182015b828111156136d95782518255916020019190600101906136be565b506136e5929150613869565b5090565b828054828255906000526020600020908101928215613736579160200282015b82811115613736578251805161372691849160209091019061366b565b5091602001919060010190613709565b506136e5929150613886565b6080604051908101604052806060815260200160608152602001606081526020016000151581525090565b604080518082019091526060808252602082015290565b828054600181600116156101000203166002900490600052602060002090601f016020900481019282601f106137bd57805485556136d9565b828001600101855582156136d957600052602060002091601f016020900482015b828111156136d95782548255916001019190600101906137de565b50805460018160011615610100020316600290046000825580601f1061381f575061383d565b601f01602090049060005260206000209081019061383d9190613869565b50565b81548183558181111561386457600083815260209020613864918101908301613886565b505050565b61388391905b808211156136e5576000815560010161386f565b90565b61388391905b808211156136e55760006138a082826137f9565b5060010161388c565b6000601f820183136138ba57600080fd5b81356138cd6138c882613d67565b613d40565b915080825260208301602083018583830111156138e957600080fd5b6138f4838284613d9e565b50505092915050565b600061084b8235613883565b60006020828403121561391b57600080fd5b813567ffffffffffffffff81111561393257600080fd5b61393e848285016138a9565b949350505050565b6000806040838503121561395957600080fd5b823567ffffffffffffffff81111561397057600080fd5b61397c858286016138a9565b925050602083013567ffffffffffffffff81111561399957600080fd5b6139a5858286016138a9565b9150509250929050565b6000806000606084860312156139c457600080fd5b833567ffffffffffffffff8111156139db57600080fd5b6139e7868287016138a9565b935050602084013567ffffffffffffffff811115613a0457600080fd5b613a10868287016138a9565b925050604084013567ffffffffffffffff811115613a2d57600080fd5b613a39868287016138a9565b9150509250925092565b600080600080600080600080610100898b031215613a6057600080fd5b883567ffffffffffffffff811115613a7757600080fd5b613a838b828c016138a9565b985050602089013567ffffffffffffffff811115613aa057600080fd5b613aac8b828c016138a9565b975050604089013567ffffffffffffffff811115613ac957600080fd5b613ad58b828c016138a9565b9650506060613ae68b828c016138fd565b955050608089013567ffffffffffffffff811115613b0357600080fd5b613b0f8b828c016138a9565b94505060a089013567ffffffffffffffff811115613b2c57600080fd5b613b388b828c016138a9565b93505060c089013567ffffffffffffffff811115613b5557600080fd5b613b618b828c016138a9565b92505060e089013567ffffffffffffffff811115613b7e57600080fd5b613b8a8b828c016138a9565b9150509295985092959890939650565b6000613ba582613d95565b80845260208401935083602082028501613bbe85613d8f565b60005b84811015613bf5578383038852613bd9838351613c10565b9250613be482613d8f565b602098909801979150600101613bc1565b50909695505050505050565b613c0a81613d99565b82525050565b6000613c1b82613d95565b808452613c2f816020860160208601613daa565b613c3881613dda565b9093016020019392505050565b613c0a81613883565b6020808252810161084b8184613b9a565b60208101610b2d8284613c01565b6020808252810161084b8184613c10565b60408082528101613c8f8185613c10565b9050818103602083015261393e8184613c10565b60e08082528101613cb4818a613c10565b90508181036020830152613cc88189613c10565b9050613cd76040830188613c45565b8181036060830152613ce98187613c10565b90508181036080830152613cfd8186613c10565b905081810360a0830152613d118185613c10565b905081810360c0830152613d258184613c10565b9998505050505050505050565b60208101610b2d8284613c45565b60405181810167ffffffffffffffff81118282101715613d5f57600080fd5b604052919050565b600067ffffffffffffffff821115613d7e57600080fd5b506020601f91909101601f19160190565b60200190565b5190565b151590565b82818337506000910152565b60005b83811015613dc5578181015183820152602001613dad565b83811115613dd4576000848401525b50505050565b601f01601f19169056fea265627a7a723058206d809f3f4d07c049cf7b6960cd9b2cf4cf24bc58d07238a559c9a5954e67a65f6c6578706572696d656e74616cf50037",
  "source": "pragma solidity ^0.5.0;\r\npragma experimental ABIEncoderV2;\r\n\r\ncontract Productfi {\r\n\r\n    // A struct which helps create a new code\r\n    // code is a combination of - brand name, model no, status, description,\r\n    // manufacturer details, retailer details, owner details\r\n\r\n    //Status = (0: product is manufactured, 1: product has been sold, 2: product stolen)\r\n    struct codeObj {\r\n        uint status;\r\n        string brand;\r\n        string model;\r\n        string description;\r\n        string manufactuerName;\r\n        string manufactuerLocation;\r\n        string manufactuerTimestamp;\r\n        string retailer;\r\n        string[] customers;\r\n    }\r\n\r\n    // A struct which helps create a new customer\r\n    struct customerObj {\r\n        string name;\r\n        string phone;\r\n        string[] code;\r\n        bool isValue;\r\n    }\r\n\r\n    struct retailerObj {\r\n        string name;\r\n        string location;\r\n    }\r\n\r\n    mapping (string => codeObj) codeArr;\r\n    mapping (string => customerObj) customerArr;\r\n    mapping (string => retailerObj) retailerArr;\r\n\r\n    // Function to create a new code for the product\r\n    function createCode(string memory _code, string memory _brand, string memory _model, uint _status, string memory _description, string memory _manufactuerName, string memory _manufactuerLocation, string memory _manufactuerTimestamp) public payable returns (uint) {\r\n        codeObj memory newCode;\r\n        newCode.brand = _brand;\r\n        newCode.model = _model;\r\n        newCode.status = _status;\r\n        newCode.description = _description;\r\n        newCode.manufactuerName = _manufactuerName;\r\n        newCode.manufactuerLocation = _manufactuerLocation;\r\n        newCode.manufactuerTimestamp = _manufactuerTimestamp;\r\n        codeArr[_code] = newCode;\r\n        return 1;\r\n    }\r\n\r\n    // Function for showing product details if the person scanning the product is not the owner\r\n    function getNotOwnedCodeDetails(string memory _code) public view returns (string memory, string memory, uint, string memory, string memory, string memory, string memory) {\r\n        string memory brand = codeArr[_code].brand;\r\n        string memory model = codeArr[_code].model;\r\n        uint status = codeArr[_code].status;\r\n        string memory description = codeArr[_code].description;\r\n        string memory manufactuerName = codeArr[_code].manufactuerName;\r\n        string memory manufactuerLocation = codeArr[_code].manufactuerLocation;\r\n        string memory manufactuerTimestamp = codeArr[_code].manufactuerTimestamp;\r\n        return (brand, model, status, description, manufactuerName, manufactuerLocation, manufactuerTimestamp);\r\n    }\r\n\r\n    // Get Current Owner\r\n    function getCurrentOwner(string memory _code) public view returns(string memory) {\r\n        uint status = codeArr[_code].status;\r\n        string memory currentOwner;\r\n        if(status == 0){\r\n            if(bytes(codeArr[_code].retailer).length!=0){\r\n                currentOwner = retailerArr[codeArr[_code].retailer].name;\r\n            }else{\r\n                currentOwner = codeArr[_code].manufactuerName;\r\n            }\r\n        }else{\r\n            currentOwner = customerArr[codeArr[_code].customers[0]].name;\r\n        }\r\n        return currentOwner;\r\n    }\r\n\r\n    // Function for showing product details if the person scanning the product is the owner\r\n    function getOwnedCodeDetails(string memory _code) public view returns (string memory, string memory) {\r\n        string memory name = retailerArr[codeArr[_code].retailer].name;\r\n        string memory location = retailerArr[codeArr[_code].retailer].location;\r\n        return (name, location);\r\n    }\r\n\r\n    // Adding retailer to code\r\n    function addRetailerToCode(string memory _code, string memory _hashedEmailRetailer) public payable returns (uint) {\r\n        codeArr[_code].retailer = _hashedEmailRetailer;\r\n        return 1;\r\n    }\r\n\r\n    // Function for creating a new customer\r\n    function createCustomer(string memory _hashedEmail, string memory _name, string memory _phone) public payable returns (bool) {\r\n        if (customerArr[_hashedEmail].isValue) {\r\n            return false;\r\n        }\r\n        customerObj memory newCustomer;\r\n        newCustomer.name = _name;\r\n        newCustomer.phone = _phone;\r\n        newCustomer.isValue = true;\r\n        customerArr[_hashedEmail] = newCustomer;\r\n        return true;\r\n    }\r\n\r\n    function getCustomerDetails(string memory _code) public view returns (string memory, string memory) {\r\n        string memory name = customerArr[_code].name;\r\n        string memory phone = customerArr[_code].phone;\r\n        return (name, phone);\r\n    }\r\n\r\n    // Function for creating a new retailer\r\n    function createRetailer(string memory _hashedEmail, string memory _retailerName, string memory _retailerLocation) public payable returns (uint) {\r\n        retailerObj memory newRetailer;\r\n        newRetailer.name = _retailerName;\r\n        newRetailer.location = _retailerLocation;\r\n        retailerArr[_hashedEmail] = newRetailer;\r\n        return 1;\r\n    }\r\n\r\n    function getRetailerDetails(string memory _code) public view returns (string memory, string memory) {\r\n        string memory name = retailerArr[_code].name;\r\n        string memory location = retailerArr[_code].location;\r\n        return (name, location);\r\n    }\r\n\r\n    event reportStolenResponse(bool response);\r\n    \r\n    // Function to report stolen\r\n    function reportStolen(string memory _code, string memory _customer) public payable returns (bool) {\r\n        uint i;\r\n        // Checking if the customer exists\r\n        if (customerArr[_customer].isValue) {\r\n            // Checking if the customer owns the product\r\n            for (i = 0; i < customerArr[_customer].code.length; i++) {\r\n                if (compareStrings(customerArr[_customer].code[i], _code)) {\r\n                    codeArr[_code].status = 2;        // Changing the status to stolen\r\n                    emit reportStolenResponse(true);\r\n                    return true;\r\n                }\r\n            }\r\n        }\r\n        emit reportStolenResponse(false);\r\n        return false;\r\n    }\r\n\r\n    event reportFoundResponse(bool response);\r\n    \r\n    // Function to report found\r\n    function reportFound(string memory _code, string memory _customer) public payable returns (bool) {\r\n        uint i;\r\n        // Checking if the customer exists\r\n        if (customerArr[_customer].isValue) {\r\n            // Checking if the customer owns the product\r\n            for (i = 0; i < customerArr[_customer].code.length; i++) {\r\n                if (compareStrings(customerArr[_customer].code[i], _code)) {\r\n                    codeArr[_code].status = 1;        // Changing the status to found or owned\r\n                    emit reportFoundResponse(true);\r\n                    return true;\r\n                }\r\n            }\r\n        }\r\n        emit reportFoundResponse(false);\r\n        return false;\r\n    }\r\n\r\n    event changeOwnerResponse(bool response);\r\n\r\n    function changeOwner(string memory _code, string memory _oldCustomer, string memory _newCustomer) public payable returns (bool) {\r\n        uint i;\r\n        bool flag = false;\r\n        //Creating objects for code,oldCustomer,newCustomer\r\n        codeObj memory product = codeArr[_code];\r\n        uint len_product_customer = product.customers.length;\r\n        customerObj memory oldCustomer = customerArr[_oldCustomer];\r\n        uint len_oldCustomer_code = customerArr[_oldCustomer].code.length;\r\n        customerObj memory newCustomer = customerArr[_newCustomer];\r\n\r\n        //Check if oldCustomer and newCustomer have an account\r\n        if (oldCustomer.isValue && newCustomer.isValue) {\r\n            //Check if oldCustomer is owner\r\n            for (i = 0; i < len_oldCustomer_code; i++) {\r\n                if (compareStrings(oldCustomer.code[i], _code)) {\r\n                    flag = true;\r\n                    break;\r\n                }\r\n            }\r\n\r\n            if (flag == true) {\r\n                //Swaping oldCustomer with newCustomer in product\r\n                for (i = 0; i < len_product_customer; i++) {\r\n                    if (compareStrings(product.customers[i], _oldCustomer)) {\r\n                        codeArr[_code].customers[i] = _newCustomer;\r\n                        break;\r\n                    }\r\n                }\r\n\r\n                // Removing product from oldCustomer\r\n                for (i = 0; i < len_oldCustomer_code; i++) {\r\n                    if (compareStrings(customerArr[_oldCustomer].code[i], _code)) {\r\n                        remove(i, customerArr[_oldCustomer].code);\r\n                        // Adding product to newCustomer\r\n                        uint len = customerArr[_newCustomer].code.length;\r\n                        if(len == 0){\r\n                            customerArr[_newCustomer].code.push(_code);\r\n                            customerArr[_newCustomer].code.push(\"hack\");\r\n                        } else {\r\n                            customerArr[_newCustomer].code[len-1] = _code;\r\n                            customerArr[_newCustomer].code.push(\"hack\");\r\n                        }\r\n                        emit changeOwnerResponse(true);\r\n                        return true;\r\n                    }\r\n                }\r\n            }\r\n        }\r\n        emit changeOwnerResponse(false);\r\n        return false;\r\n    }\r\n\r\n    event initialOwnerResponse(bool response);\r\n\r\n    function initialOwner(string memory _code, string memory _retailer, string memory _customer) public payable returns(bool) {\r\n            // uint i;\r\n            if (compareStrings(codeArr[_code].retailer, _retailer)) {       // Check if retailer owns the product\r\n                if (customerArr[_customer].isValue) {                       // Check if Customer has an account\r\n                    codeArr[_code].customers.push(_customer);               // Adding customer in code\r\n                    codeArr[_code].status = 1;\r\n                    uint len = customerArr[_customer].code.length;\r\n                    if(len == 0) {\r\n                        customerArr[_customer].code.push(_code);\r\n                        customerArr[_customer].code.push(\"hack\");\r\n                    } else {\r\n                        customerArr[_customer].code[len-1] = _code;\r\n                        customerArr[_customer].code.push(\"hack\");\r\n                    }\r\n                    emit initialOwnerResponse(true);\r\n                    return true;\r\n                }\r\n            }\r\n            emit initialOwnerResponse(false);\r\n            return false;\r\n        }\r\n\r\n    // Given a customer returns all the product codes he owwns\r\n    function getCodes(string memory _customer) public view returns(string[] memory) {\r\n        string[] memory codes = customerArr[_customer].code;\r\n        return codes;\r\n    }\r\n\r\n    // Cannot directly compare strings in Solidity\r\n    // This function hashes the 2 strings and then compares the 2 hashes\r\n    function compareStrings(string memory a, string memory b) internal returns (bool) {\r\n    \treturn keccak256(abi.encodePacked((a))) == keccak256(abi.encodePacked((b)));\r\n    }\r\n\r\n    // Function to delete an element from an array\r\n    function remove(uint index, string[] storage array) internal returns(bool) {\r\n        if (index >= array.length)\r\n            return false;\r\n\r\n        for (uint i = index; i < array.length-1; i++) {\r\n            array[i] = array[i+1];\r\n        }\r\n        delete array[array.length-1];\r\n        array.length--;\r\n        return true;\r\n    }\r\n\r\n    // Function to convert string to bytes32\r\n    function stringToBytes32(string memory source) internal returns (bytes32 result) {\r\n        bytes memory tempEmptyStringTest = bytes(source);\r\n        if (tempEmptyStringTest.length == 0) {\r\n            return 0x0;\r\n        }\r\n        assembly {\r\n            result := mload(add(source, 32))\r\n        }\r\n    }\r\n}\r\n\r\n\r\n// Data for testing the functions\r\n// createCode:           \r\n//                      \"11\", \"Nike\", \"Jordan\", 0, \"It's costly\", \"Amazon\", \"Mumbai\", \"11:00\"\r\n//                      \"22\", \"Adidas\", \"Air\", 0, \"It's limited\", \"Prabhat Co.\", \"GUjarat\", \"12:00\"\r\n//                      \"33\", \"Reebok\", \"Ball\", 0, \"It's limited\", \"Prabhat Co.\", \"GUjarat\", \"12:00\"\r\n// createCustomer:      \"81bd53649936d1e82c64ed216d9d7490\", \"Kyle\", \"9869245690\"\r\n//                      \"1c29fb983dbe92474a199631dca38fc6\", \"Calden\", \"9123456789\"\r\n// createRetailer:      \"1111\", \"Lifestyle\", \"Andheri\"\r\n// addRetailerToCode:   \"11\", \"67xasdbsdfshjd89724hjdsf\"\r\n// initialOwner:        \"11\", \"Lifestyle\", \"Kyle\"\r\n//                      \"22\", \"ShopersStop\", \"Calden\"\r\n// changeOwner          \"11\", \"Calden\", \"Kyle\"",
  "sourcePath": "C:/Users/krish/OneDrive/Documents/Projects/ProductFi/smart_contract/contracts/Productfi.sol",
  "compiler": {
    "name": "solc",
    "version": "0.5.0+commit.1d4f565a.Emscripten.clang"
  },
  "schemaVersion": "3.0.1",
  "updatedAt": "2022-02-21T10:47:55.393Z",
  "devdoc": {
    "methods": {}
  },
  "userdoc": {
    "methods": {}
  }
}